S02300005333324B3334345F44656D6F4170705F53657373696F6E4B6579732E737265637F
S3150040000000004520292B40007D2C4000832C4000D9
S31500400010892C40008F2C4000952C400000000000A9
S315004000200000000000000000000000009B2C400083
S31500400030A12C400000000000A72C4000AD2C400041
S31500400040312C4000312C4000312C4000312C4000F6
S31500400050312C4000312C4000312C4000312C4000E6
S31500400060312C4000312C4000312C4000312C4000D6
S31500400070312C4000312C4000312C4000312C4000C6
S31500400080312C4000312C4000312C4000312C4000B6
S31500400090312C4000312C4000312C4000312C4000A6
S315004000A0312C4000312C4000312C4000312C400096
S315004000B0312C4000312C4000312C4000312C400086
S315004000C0312C4000312C4000312C4000312C400076
S315004000D0312C4000312C4000312C4000312C400066
S315004000E0312C400000000000312C4000312C4000F3
S315004000F000000000312C4000312C40000000000080
S31500400100312C4000312C4000312C4000312C400035
S31500400110312C4000312C4000312C4000312C400025
S31500400120312C4000000000000000000000000000EC
S3150040013000000000312C4000312C4000312C4000A2
S31500400140312C4000312C4000312C40000000000092
S3150040015000000000312C4000312C4000312C400082
S31500400160312C4000312C4000312C40000000000072
S3150040017000000000312C4000312C4000312C400062
S31500400180312C4000312C4000312C4000312C4000B5
S31500400190312C4000312C4000312C4000312C4000A5
S315004001A00000000000000000000000000000000009
S315004001B0312C4000312C40000000000000000000BF
S315004001C0312C4000312C4000312C40000000000012
S315004001D00000000000000000312C4000000000003C
S315004001E000000000312C4000312C4000312C4000F2
S315004001F0312C4000312C4000312C4000312C400045
S31500400200312C4000312C4000312C4000312C400034
S31500400210312C4000312C4000312C4000312C400024
S31500400220312C4000312C4000312C4000312C400014
S31500400230312C4000000000000000000000000000DB
S315004002400000000000000000000000000000000068
S315004002500000000000000000000000000000000058
S31500400260000000000000000000000000312C4000AB
S3150040027000000000312C4000312C4000312C400061
S31500400280312C4000312C4000312C4000312C4000B4
S31500400290312C4000312C4000312C4000312C4000A4
S315004002A0312C4000312C4000312C4000312C400094
S315004002B0312C40000000000000000000000000005B
S315004002C000000000312C4000312C400000000000AE
S315004002D000000000312C4000312C4000312C400001
S315004002E0312C4000312C4000312C400000000000F1
S315004002F000000000312C4000312C4000312C4000E1
S315004003000000000000000000312C4000000000000A
S31500400310312C4000312C4000312C4000312C400023
S31500400320312C4000312C400000000000000000004D
S3150040033000000000312C4000312C4000000000003D
S31500400340312C4000312C4000312C4000312C4000F3
S31500400350312C4000312C400000000000000000001D
S315004003600000000000000000312C4000312C40000D
S31500400370312C4000312C4000312C4000312C4000C3
S315004003800000000000000000000000000000000027
S315004003900000000000000000000000000000000017
S315004003A00000000000000000000000000000000007
S315004003B000000000000000000000000000000000F7
S315004003C00348044B834202D0034B03B1184770479E
S315004003D01885402018854020000000000548064941
S315004003E00B1AD90F01EBA301491002D0034B03B1FD
S315004003F018477047188540201885402000000000A7
S3150040040010B5064C237843B9FFF7DAFF044B13B116
S315004004100448AFF300800123237010BD18854020A7
S31500400420000000002C31400008B5044B1BB10449C4
S315004004300448AFF30080BDE80840CFE70000000065
S315004004401C8540202C314000A3F5803A704700BF00
S31500400450174B002B08BF134B9D46FFF7F5FF0021B6
S315004004608B460F461348144A121A02F065FC0E4B8F
S31500400470002B00D098470D4B002B00D0984700200A
S31500400480002104000D000D48002802D00C4802F05F
S31500400490CBFC02F01FFC2000290002F093F902F089
S315004004A009FC00BF0000080000000000000000003A
S315004004B00000452018854020B8064120292E4000DE
S315004004C0012E400080B485B000AF0346FB71FB7936
S315004004D0284AD35C0133BB73FF237B730023FB7332
S315004004E03EE0FB79244A52F8233003F582731A68BA
S315004004F0BB7B012101FA03F31340002B1BD1FB798F
S315004005001D4A52F8233003F592731A68BB7B0121CA
S3150040051001FA03F31340002B0DD0FB79164A52F82B
S31500400520233003F596731A68BB7B012101FA03F366
S315004005301340002B08D0BB7B0133BB73BB7B022B24
S315004005400BD90123BB7308E0BB7B7B73FB797A7BBA
S31500400550013AD1B2074AD15405E0FB7B0133FB7324
S31500400560FB7B012BBDD97B7B18461437BD4680BC2F
S31500400570704700BF348540200080402080B483B05F
S3150040058000AF03460A46FB711346BB71FB790A4A24
S3150040059052F8233003F596731A68BB79012101FAA4
S315004005A003F31340002B14BF01230023DBB218468C
S315004005B00C37BD4680BC70470080402080B485B073
S315004005C000AF0346FB710023FB60FB79084A52F8F3
S315004005D0233003F582731B68FB60FB681B0CFB60D2
S315004005E0FB689BB218461437BD4680BC704700BFB7
S315004005F00080402080B485B000AF03460A46FB71B8
S315004006001346BB71FB79084A52F82330BA799200F7
S31500400610134403F520731B68FB60FB6818461437C8
S31500400620BD4680BC704700BF0080402090B587B073
S3150040063002AF0446084611461A462346FB71034656
S31500400640BB710B467B7113463B71254B1B781A4693
S31500400650244B53F82220244B1B7819460B46DB00CB
S315004006605B1A1B011344FB6070220021F86802F0FC
S3150040067063FBFB681D4A1A60FB680833BB60BB68B6
S31500400680FA791A70BB68BA799A70BB687A79DA7067
S31500400690BB683A791A71BB683A6A9A607A6ABB68EB
S315004006A0DA60BB68BA6A1A61FA6ABB685A613A6B21
S315004006B0BB689A61BB6897F834205A71084B187822
S315004006C0094B19780A4BFA6801929A6800920CCB4A
S315004006D001F000FC034618461437BD4690BD00BFE6
S315004006E040854020B42E4000088040200302A500EB
S315004006F0BC2E400080B58AB006AFF8607A603B6099
S315004007000B46FB72FA7A97F820300593FB690493FF
S31500400710BB6903933B6802937B680193FB68009334
S31500400720002310210020FFF781FF034618461037AB
S31500400730BD4680BD80B588B002AFF8607A601A4683
S315004007400B46FB721346BB7200231A46224B53F8E4
S315004007502220012319460B46DB005B1A1B0113447A
S315004007607B6170220021786902F0E6FA7B691B4AB8
S315004007701A607B6908333B613B69FA7A1A703B69B8
S31500400780FA685A603B697A689A603B69BA7A1A7322
S315004007903B693A6A1A617A6A3B695A613B6997F8DA
S315004007A028201A76FA6A3B69DA613A6B3B691A6223
S315004007B03B6997F834205A7300200121084B7A6927
S315004007C001929A6800920CCB01F084FB03461846CE
S315004007D01837BD4680BD00BFB42E40000B02A500B1
S315004007E0BC2E400080B586B002AF78600846114600
S315004007F01A460346FB700B463B801346BB70214BA3
S315004008001B781A46204B53F82220204B1B7819465A
S315004008100B46DB005B1A1B011344FB607022002170
S31500400820F86802F089FAFB684FF483721A60FB6835
S315004008300833BB60BB68FA781A74BB683A889A80FA
S31500400840BB68BA785A74BB699AB2BB68DA80FA69EF
S31500400850BB689A61BB6803221A75BB687A681A60DE
S31500400860084B1878094B1978094BFA6801929A682F
S3150040087000920CCB01F02EFB034618461037BD46BE
S3150040088080BD00BF41854020B42E400009804020F5
S31500400890BC2E400080B483B000AF78607B68013BDB
S315004008A0092B32D801A252F823F000BFD5084000E8
S315004008B0DB084000E1084000E7084000ED08400042
S315004008C0F3084000F90840000B094000FF084000CB
S315004008D0050940004FF4807318E04FF4C07315E0EB
S315004008E040F2092312E04FF480730FE04FF4A073F7
S315004008F00CE04FF4C07309E04FF4007306E04FF488
S31500400900807303E04FF4807300E0002318460C37F1
S31500400910BD4680BC704700BF90B587B002AFF86057
S315004009207A603B600B46FB727B689CB2FB7A18464A
S31500400930FFF7B0FF0146FA7A3B68019300911346F0
S3150040094022468721F868FFF74DFF034618461437BD
S31500400950BD4690BD80B588B002AF78603960194B0E
S315004009601B781A46184B53F82220184B1B78194609
S315004009700B46DB005B1A1B0113447B617B69083322
S315004009803B6170220021786902F0D6F97B6940F21A
S3150040099001121A607A683B691A603A683B695A6084
S315004009A0084B1878094B1978094B7A6901929A686D
S315004009B000920CCB01F08EFAF860FB6818461837A7
S315004009C0BD4680BD42854020B42E40000A8040206E
S315004009D0BC2E400080B592B000AF03460A46FB717C
S315004009E01346BB710023A7F8423007F108033822AB
S315004009F00021184602F0A0F9374B7B64FB79184674
S31500400A00FFF7DCFD0346A7F84230B7F8423003F45F
S31500400A100063002B08D1B7F8423003F48053002B13
S31500400A2002D12E4B7B6451E02D4B1B68B3F1FF3F47
S31500400A300BD12B4B4FF480721221012001F040FD67
S31500400A4078647B6C274A93423BD100233B61002369
S31500400A503B62234BFB6007F10802B979FB791846E4
S31500400A6000F074F978647B6C1E4A934203D01C48AC
S31500400A7001F04AFD2AE01C4B1B68B3F1FF3F0BD146
S31500400A80194B4FF480721221002001F019FD786451
S31500400A907B6C144A934216D1134BFB6007F1080254
S31500400AA0B979FB79184600F051F978647B6C0D4AA8
S31500400AB093420AD00A4801F027FD0B4801F024FD75
S31500400AC004E000BF02E000BF00E000BF7B6C1846B8
S31500400AD04837BD4680BD00BFF1D4D6331CA255AAC7
S31500400AE06080402033AAA5559080402080B483B0D2
S31500400AF000AF786039607B68002B16D03B681B0CD2
S31500400B00DBB2012B11D17B681B7B882B0DD07B6818
S31500400B101B7B892B09D07B681B7B982B05D07B6878
S31500400B201B7B992B01D0012300E00023DBB2184642
S31500400B300C37BD4680BC704780B584B000AF786046
S31500400B407B681B7803F00203002B00F09F807B68D4
S31500400B501B69002B40F09A800023FB604D4B01221D
S31500400B601A707B685B685A687B685B681B681946C5
S31500400B701046FFF7BBFF0346002B17D0FB68464ADB
S31500400B8098187B685B685B681022194602F0C6F8C5
S31500400B907B685B685B68414A13607B685B68FA68A0
S31500400BA03D490A445A60FB681033FB607B685B68CA
S31500400BB09B68002B1DD0FB68374A98187B685B689A
S31500400BC099687B685B689B891A4602F0A7F87B6840
S31500400BD05B689B68324A13607B685B68FA682E499B
S31500400BE00A449A607B685B689B891A46FB68134493
S31500400BF0FB607B685B681B69002B1DD0FB68264A3F
S31500400C0098187B685B6819697B685B689B8A1A469B
S31500400C1002F084F87B685B681B69224A13607B6834
S31500400C205B68FA681C490A441A617B685B689B8A60
S31500400C301A46FB681344FB607B685B689B69002B24
S31500400C401DD0FB68144A98187B685B6899697B6875
S31500400C505B689B8B1A4602F061F87B685B689B6910
S31500400C60114A13607B685B68FA680B490A449A61CB
S31500400C707B685B689B8B1A46FB681344FB607B680A
S31500400C80054A1A61FB689AB27B689A8200BF1037A0
S31500400C90BD4680BD4485402048854020308B40205D
S31500400CA0248B4020288B40202C8B402080B582B05E
S31500400CB000AF78601F4B1B78002B37D01D4B0022AE
S31500400CC01A7040F2DC5200211B4802F035F87B686E
S31500400CD05B681A4A12689A607B685B68184A1268B1
S31500400CE01A617B685B68174A12689A61164B1A68E4
S31500400CF07B685B681B6819461046FFF7F7FE03469C
S31500400D00002B04D07B685B680F4A12685A600B4B15
S31500400D1000221A600A4B00221A600A4B00221A600F
S31500400D20094B00221A607B6800221A6100BF08370F
S31500400D30BD4680BD4485402048854020248B4020C8
S31500400D40288B40202C8B4020308B402080B588B0AB
S31500400D5000AF03463A60FB710B46BB7107F10C03CB
S31500400D6000221A605A609A60DA603B685B681B68CA
S31500400D701B0CDBB2012B0ED13B685B681B6807F18D
S31500400D800C021146184600F049FD0346084A9342B4
S31500400D9001D0012300E00023FB77FA7FB979F87987
S31500400DA03B6800F007F8034618462037BD4680BD2D
S31500400DB01753AAA580B588B002AF3B600346FB71C6
S31500400DC00B46BB7113467B71FB79714A52F823106F
S31500400DD0BA791346DB009B1A1B010B443B613B6906
S31500400DE00833FB6070220021386901F0A5FF7B794A
S31500400DF0002B0CD03B685B681B680021184600F04E
S31500400E00CFFC78617B69634A934240F0BB80386887
S31500400E10FFF792FE3B694FF482721A603B685B684B
S31500400E205A683B685B681B6819461046FFF75EFECA
S31500400E300346012B10D03B685B681B681B0CDBB27A
S31500400E40012B07D1544B1B680133534A1360524B55
S31500400E501B6803E0002301E04F4B1B683A68526869
S31500400E60526853603B685B681A68FB681A603B6867
S31500400E705B685B681A46FB685A603B685B689B68C0
S31500400E801A46FB689A603B685B689A89FB689A8257
S31500400E903B685B681B691A46FB68DA603B685B68BF
S31500400EA09A8AFB68DA823B685B689B691A46FB68EC
S31500400EB01A613B685B689A8BFB681A83FB684FF044
S31500400EC0FF32DA613B689B68002B13D03B689B6816
S31500400ED01B68B3F1FF3F0DD03B689B681A68FB68FF
S31500400EE0DA61FB6803F120003B68DB68182219468B
S31500400EF001F014FFFB684FF0FF321A643B689B69B0
S31500400F00002B27D03B689B691B68B3F1FF3F21D07C
S31500400F103B689B691A68FB681A64FB6803F14400E6
S31500400F203B68DB690C22194601F0F8FE3B681B6AF8
S31500400F301A46FB685A653B689A8CFB68A3F85020B2
S31500400F403B689B6A1A46FB689A653B689A8DFB68C4
S31500400F50A3F852203B681B691A46FB68DA633B6874
S31500400F609A8AFB681A870D4BB979F8793A690192E2
S31500400F709A6800920CCB00F0ADFF78613868FFF7B5
S31500400F8095FE00E000BF7B6918461837BD4680BD18
S31500400F90B42E400033AAA555448B4020BC2E4000B9
S31500400FA0B0B58EB004AF03463A60FB710B46BB71D9
S31500400FB0002387F82330002387F8223007F11003F7
S31500400FC000221A605A609A60DA604FF40073FB811F
S31500400FD04FF40073BB813B685B681A6807F11003E6
S31500400FE0B979F87900F030FC78627B6A7C4A9342A2
S31500400FF040F00F827B4B40F205121A603B685A68FC
S31500401000794B1B6812681A603B685B685A68764B76
S315004010101B685A603B685B689A68734B1B689A60AA
S315004010203B685B6803F10C026F4B1B685A613B6877
S315004010305B681A696C4B1B68DA603B685B6803F156
S315004010401402694B1B689A613B685B689A69664BF8
S315004010501B681A613B685B6803F11C02624B1B68A4
S31500401060DA61614B1B684FF0FF321A623B689B683E
S31500401070002B35D03B689B681B68B3F1FF3F2FD0F0
S315004010803B689A68584B1B6812681A623B68DB6873
S31500401090002B1AD03B68DB681B78112B04D03B68C9
S315004010A0DB681B78122B10D13B68DB6819693B68FB
S315004010B0DB685A694C4B1B680A445A603B68DB68DC
S315004010C01A693B68DB6810321A61474B1B6803F1AB
S315004010D024003B68DB681822194601F01FFE3FE0FA
S315004010E03B7F122B05D03B7F202B02D03B7F302B02
S315004010F036D1012387F82330BA79FB791146184651
S31500401100FFF768FC78627B6A354A934240F08381F8
S31500401110354B1B68354A12681A62334B1B68344A92
S3150040112003F1240415460FCD0FC495E8030084E867
S3150040113003003B689B8A103B03F00F03002B0FD044
S315004011403B689B8A103B1B0901339BB21B019AB239
S315004011503B689A823B689B8A10339AB23B689A8274
S31500401160214B1B684FF0FF325A643B689B69002B4A
S3150040117040D03B689B691B68B3F1FF3F3AD03B6860
S315004011809A69194B1B6812685A643B681A69164B70
S315004011901B681A64144B1B683A68928A9A87124BEA
S315004011A01B6803F148003B68DB690C22194601F0D5
S315004011B0B5FD3B681A6A0C4B1B68DA653B6803F160
S315004011C02402094B1B685A653B689A6A064B1B68A2
S315004011D01A663B6803F12C02034B1B689A6564E070
S315004011E033AAA555089B4020B0804020608040200F
S315004011F00C8040203B7F122B05D03B7F202B02D01A
S315004012003B7F302B51D13B68DB68002B09D03B68D4
S31500401210DB681B78112B47D03B68DB681B78122BA9
S3150040122042D0012387F8223097F82330002B0BD188
S31500401230BA79FB7911461846FFF7CCFB78627B6A90
S315004012408A4A934240F0E980894B1B68894A5A6032
S31500401250874B1B68884A1A61854B1B68854A1A6406
S31500401260834B1B684FF4BC629A87814B1B68834A49
S3150040127012685A647E4B1B68814A483307CA83E822
S3150040128007007B4B1B687F4ADA65794B1B6807F181
S315004012900E025A65764B1B687B4A1A66744B1B686E
S315004012A007F10C029A6500E000BFFB79774A52F8D5
S315004012B02310BA791346DB009B1A1B010B4470229C
S315004012C07349184601F02AFDFB79704A52F82310FB
S315004012D0BA791346DB009B1A1B01CA186D4BB979C4
S315004012E0F87901929A6800920CCB00F0F3FD78628F
S315004012F07B6A5E4A934240F0928097F82230002BF8
S3150040130029D0FB89BB60644B186807F108030022AB
S3150040131001925C4A0092574A4FF4BC6100F012FDBC
S3150040132078627B6A514A93427BD197F82330002BEF
S3150040133011D13B685B685B6810224E49184601F044
S31500401340EDFC3B685B6898693B685B689B8B1A461B
S31500401350494901F0E3FC97F82330002B39D04E4B36
S315004013601868434B1B689B8FA3F11002404B1B68C8
S315004013701B6C1033194600230293484B019300918E
S31500401380134600220321FFF7B5F978627B6A374A94
S31500401390934248D1364B1B685B685B880733DA0853
S315004013A03B685B6892B29A833B685B6898693B6826
S315004013B05B689B8B1A46394901F0B0FC3B685B6819
S315004013C058682B4B1B685B681022194601F0A6FC37
S315004013D02CE03B68DB68002B27D03B68DB681B783A
S315004013E0112B04D03B68DB681B78122B1DD13B6860
S315004013F05B6858681E4B1B685B681022194601F0F3
S315004014008DFC3B68DB681A693B68DB68103A1A61F9
S315004014100CE000BF0AE000BF08E000BF06E000BFE6
S3150040142004E000BF02E000BF00E000BF97F82230B2
S31500401430012B03D097F82330012B11D10F4B1B689A
S315004014400021184600F0ACF90C4801F05DF8124B4B
S315004014501B680021184600F0A3F90F4801F054F824
S315004014607B6A18462837BD46B0BD00BF33AAA5558E
S31500401470B0804020488F4020588F402060804020D8
S3150040148024804020488B4020488D4020B42E400088
S31500401490089B4020BC2E400090804020289540204C
S315004014A080B588B002AFF860B9607A603B60224B85
S315004014B01B781A46214B53F82220214B1B7819469C
S315004014C00B46DB005B1A1B0113447B617B690833C7
S315004014D03B6170220021786901F02EFC7B6940F265
S315004014E005121A603B69FA681A60BA683B695A6025
S315004014F03A683B699A607A683B695A613B694FF042
S31500401500FF321A623B694FF0FF325A643B6997F8E3
S31500401510202083F86420084B1878094B1978094B2A
S315004015207A6901929A6800920CCB00F0D3FC03468C
S3150040153018461837BD4680BD43854020B42E40002E
S315004015400B804020BC2E400080B586B002AFF860CC
S31500401550B9607A603B60084B1878084B19783B684D
S3150040156001937B680093BB68FA6800F009F803466C
S3150040157018461037BD4680BD438540200B8040202D
S3150040158080B588B004AFBA607B600346FB730B46F8
S31500401590BB73B97BF87B002303934FF0FF33029371
S315004015A0FB690193BB6900937B68BA6800F005F854
S315004015B0034618461037BD4680BD80B59AB000AF89
S315004015C0BA607B600346FB730B46BB7307F144036B
S315004015D020220021184601F0AFFB07F11403302208
S315004015E00021184601F0A8FB7B68BB64BB687B649E
S315004015F03B6FFB657B6F1B88A7F8603007F14403A0
S31500401600BB6107F17803FB61FB6F3B620023FB6222
S3150040161007F11402B97BFB7B1846FFF7C1FC7866DD
S31500401620B7F860207B6F1A807B6E18466837BD46D8
S3150040163080BD000080B588B002AF7860084611468C
S315004016401A460346FB700B463B801346BB704E4B17
S315004016501B781A464D4B53F822204D4B1B781946A2
S315004016600B46DB005B1A1B0113443B613B690833A5
S31500401670FB603B8C0733DB08FB82BB78092B26D00B
S31500401680BB780A2B23D0BB780B2B20D0BB780C2BF6
S315004016901DD097F82430002B06D13B8C0733DB084E
S315004016A09BB25B00FB8212E097F82430022B06D1F6
S315004016B03B8C0733DB089BB20133FB8207E03B8C54
S315004016C00733DB089BB25B009BB20133FB8270227F
S315004016D00021386901F030FB102200212D4801F02D
S315004016E02BFB2C4AFB7813732A4A3B881380294AE2
S315004016F0BB785373274A3B8C53807B681B0CDBB209
S31500401700012B07D1244B1B680133234A1360224B1C
S315004017101B6800E000231F4A53603B694FF4827206
S315004017201A601C4AFB685A60BA6AFB689A60FB6892
S31500401730FA8A9A82FA6AFB681A613B8C0733DB089D
S315004017409AB2FB681A83FB687A681A60FB684FF0A6
S31500401750FF32DA61FB684FF0FF321A64FB6897F894
S31500401760242083F85C20084B1878094B19780B4BDA
S315004017703A6901929A6800920CCB00F0ABFB0346A3
S3150040178018461837BD4680BD43854020B42E4000DC
S315004017900B804020348B4020448B4020BC2E4000A0
S315004017A080B586B002AF78600B46FB70174B1B784E
S315004017B01A46174B53F82220164B1B7819460B46F0
S315004017C0DB005B1A1B011344FB6070220021F868A2
S315004017D001F0B2FAFB684FF481721A60FB687A68CE
S315004017E09A60FB68FA781A73084B1878094B19788F
S315004017F0094BFA6801929A6800920CCB00F06AFB9A
S31500401800034618461037BD4680BD00BF438540207D
S31500401810B42E40000B804020BC2E400080B582B0E4
S3150040182000AF78603960064B1878064B19783B68EC
S315004018307A6800F009F8034618460837BD4680BD69
S31500401840438540200B80402080B588B002AFBA6007
S315004018507B600346FB730B46BB73FB7B144A52F813
S315004018602310BA7B1346DB009B1A1B010B447B619A
S315004018707B6908333B6170220021786901F05CFA8C
S315004018807B690C4A1A603B69BA681A607A683B6998
S315004018905A60094BB97BF87B7A6901929A68009243
S315004018A00CCB00F017FB034618461837BD4680BDE3
S315004018B0B42E40000301A500BC2E400080B586B082
S315004018C004AF7860084611461A460346FB700B463D
S315004018D03B801346BB70B8783A88F978BB69039366
S315004018E07B690293002301933B8A00930346786801
S315004018F0FFF7A0FE034618460837BD4680BD0000E8
S3150040190090B58BB002AFF8607A601A460B467B8181
S3150040191013467B722B4BFB612B4B1B781A462B4B8A
S3150040192053F822202A4B1B7819460B46DB005B1ADC
S315004019301B011344BB61BB6908337B6197F83C10BC
S315004019407A8E787A7B6800F0BBFDF861FB69214AA4
S3150040195093422FD170220021B86901F0EDF9BB699D
S3150040196040F209121A607B69FA681A607B697A89C3
S315004019709A807B681A687B699A607B6903F10C04DC
S3150040198007F130030FCB84E80F000F4B1878104B4C
S315004019901978114BBA6901929A6800920CCB00F003
S315004019A099FAF861FB690B4A934205D0786800F0D2
S315004019B0ABFD02E000BF00E000BFFB6918462437DC
S315004019C0BD4690BDF1D4D633789B4020B42E40001E
S315004019D0B480402033AAA555BC2E400080B586B0C1
S315004019E002AF78601A4B1B781A461A4B53F82220DE
S315004019F0194B1B7819460B46DB005B1A1B01134437
S31500401A00FB60FB680833BB6070220021F86801F078
S31500401A1093F9FB684FF484721A60BB6805221A700A
S31500401A20BB68043324227968184601F077F9084BDD
S31500401A301878094B1978094BFA6801929A6800920E
S31500401A400CCB00F047FA034618461037BD4680BD1A
S31500401A50789B4020B42E4000B4804020BC2E4000ED
S31500401A6082B080B586B002AF396007F1180181E8CF
S31500401A700C000346FB7100231A46264B53F82220DE
S31500401A80012319460B46DB005B1A1B011344FB601E
S31500401A9070220021F86801F04FF9FB681E4A1A606F
S31500401AA0FB680833BB60BB68FA791A703B68DAB2E8
S31500401AB0BB685A70BB68043307F1180207CA83E84B
S31500401AC00700BB6801229A70BB687A6A1A61BB68D4
S31500401AD0BA6A5A61FA6ABB689A613A6BBB68DA615C
S31500401AE07A6BBB681A62BB6897F83820DA700020B8
S31500401AF001210A4BFA6801929A6800920CCB00F0D9
S31500401B00E9F9034618461037BD46BDE8804002B0A5
S31500401B10704700BFB42E40000102A500BC2E400015
S31500401B2082B080B586B002AF396007F1180181E80E
S31500401B300C000346FB7100231A46264B53F822201D
S31500401B40012319460B46DB005B1A1B011344FB605D
S31500401B5070220021F86801F0EFF8FB681E4A1A600F
S31500401B60FB680833BB60BB68FA791A703B68DAB227
S31500401B70BB685A70BB68043307F1180207CA83E88A
S31500401B800700BB6800229A70BB687A6A1A61BB6814
S31500401B90BA6A5A61FA6ABB689A613A6BBB68DA619B
S31500401BA07A6BBB681A62BB6897F83820DA700020F7
S31500401BB001210A4BFA6801929A6800920CCB00F018
S31500401BC089F9034618461037BD46BDE8804002B045
S31500401BD0704700BFB42E40000102A500BC2E400055
S31500401BE080B588B002AFF860B9607A60FB700023B8
S31500401BF01A461B4B53F82220012319460B46DB009D
S31500401C005B1A1B0113447B6170220021786901F045
S31500401C1093F87B69134A1A607B6908333B613B69D9
S31500401C2001221A733B69FA681A603B69BA689A607E
S31500401C307A683B695A603B69FA785A733A6A3B69F3
S31500401C401A6100200121084B7A6901929A68009234
S31500401C500CCB00F03FF9034618461837BD4680BD09
S31500401C60B42E40000202A500BC2E400080B588B0CC
S31500401C7002AFF860B9607A60FB7000231A461B4BCE
S31500401C8053F82220012319460B46DB005B1A1B0141
S31500401C9013447B6170220021786901F04DF87B691D
S31500401CA0134A1A607B6908333B613B6900221A7309
S31500401CB03B69FA681A603B69BA689A607A683B6918
S31500401CC05A603B69FA785A733A6A3B691A6100204E
S31500401CD00121084B7A6901929A6800920CCB00F078
S31500401CE0F9F8034618461837BD4680BDB42E400065
S31500401CF00202A500BC2E400080B590B008AFF86047
S31500401D00B9607A603B6011233B7510233B7697F8A8
S31500401D102C300693BB6A05933B6804937B68039318
S31500401D20BB680293FB680193FB69009307F11403B8
S31500401D300CCB00210020FFF793FE034618462037C0
S31500401D40BD4680BD80B590B008AFF860B9607A6096
S31500401D503B6011233B7510233B7697F82C30069356
S31500401D60BB6A05933B6804937B680393BB68029305
S31500401D70FB680193FB69009307F114030CCB002128
S31500401D800020FFF7CDFE034618462037BD4680BDEE
S31500401D9080B58AB002AFF860B9607A60FB70274BB5
S31500401DA0FB61274B1B781A46264B53F82220264BBD
S31500401DB01B7819460B46DB005B1A1B011344BB61BB
S31500401DC070220021B86900F0B7FF3A8DF8787B6839
S31500401DD0302100F075FBF861FB691C4A934225D11E
S31500401DE0BB6940F207121A60BB6908337B617B69A5
S31500401DF0BA685A607B69FA689A607B681A687B6938
S31500401E001A600F4B1878104B1978114BBA6901922A
S31500401E109A6800920CCB00F05DF8F861FB690B4ABA
S31500401E20934205D0786800F06FFB02E000BF00E007
S31500401E3000BFFB6918462037BD4680BDF1D4D63376
S31500401E40799B4020B42E4000B580402033AAA5554A
S31500401E50BC2E400080B584B000AF03460A46FB71F5
S31500401E601346BB714FF0FF33FB60184BBB6002E07B
S31500401E70FB68013BFB60FB68002B08D0BA79FB7915
S31500401E8011461846FEF77AFB0346002BF0D0FB6856
S31500401E90002B15D0BA79FB7911461846FEF7AAFBF6
S31500401EA0B86000BFFB790A4A52F8233003F58273C3
S31500401EB01A68BB79012101FA03F31340002BF1D1D3
S31500401EC0BB6818461037BD4680BD00BFF1D4D63337
S31500401ED00080402082B080B584B000AF07F1180C76
S31500401EE08CE80C000346FB710B46BB713B7E002B16
S31500401EF057D1FB79484A52F82320BB7922FA03F39B
S31500401F0003F00103002B13D1FB79444A52F82330E6
S31500401F10BA799200134403F500731A467B6A13603C
S31500401F20BA79FB7911461846FFF794FFF8606AE0E4
S31500401F3000F09DFEFA79BB79394992000A44134470
S31500401F4001221A70FB79354A52F82330BA79920049
S31500401F50134403F500731A467B6A136000F080FE53
S31500401F6000BFFA79BB792E4992000A4413441B7884
S31500401F70DBB2002BF5D100F07AFEF979BB7929481E
S31500401F801A4652001A4493001A460B465B000B440D
S31500401F901B011344034404331B68FB6000F060FEDE
S31500401FA031E0F979BB791A4652001A4493001A4631
S31500401FB00B465B000B441B0113441A4A1344BB6097
S31500401FC000F055FEBB6801221A70FA69BB685A6078
S31500401FD03A6ABB689A60FA79BB79114992000A4419
S31500401FE0134401221A70FB790C4A52F82330BA790D
S31500401FF09200134403F500731A467B6A13600A4B3A
S31500402000FB6000F02DFEFB6818461037BD46BDE864
S31500402010804002B0704700BF388540200080402095
S31500402020DC9B40207C9B402033AAA55580B584B0DC
S3150040203000AF0346FB71FB79184AD35CBB73FF23A1
S315004020407B7300F014FE0023FB731CE0FA79BB7B24
S31500402050134992000A4413441B78DBB2002B0BD081
S31500402060BB7B0133BB73BB7B032B01D90123BB7302
S31500402070FB7B0133FB7306E0BB7B7B73FB79074934
S315004020807A7BCA5402E0FB7B022BDFD900F0E8FDE5
S315004020907B7B18461037BD4680BD00BFB8804020C8
S315004020A0DC9B402080B485B000AF78603960504BEF
S315004020B0FB600023FB728DE0FB7ADB007A681344F9
S315004020C01B78002B1ED1FB7ADB007A6813445B78C1
S315004020D0002B17D1FB7ADB007A6813449B78002BE0
S315004020E010D1FB7ADB007A681344DB78002B09D1E8
S315004020F0FB7ADB007A6813449B88002B02D13D4B68
S31500402100FB606BE0FB7ADB007A681A44FB7A107856
S315004021103A684FF4837101FB03F3134402330246DA
S315004021201A70FB7ADB007A681A44FB7A50783A6870
S315004021304FF4837101FB03F31344033302461A70D1
S31500402140FB7ADB007A681A44FB7A90783A684FF457
S31500402150837101FB03F31344043302461A70FB7A7E
S31500402160DB007A681A44FB7AD0783A684FF4837178
S3150040217001FB03F31344053302461A70FB7ADB0076
S315004021807A681A44FB7A90883A684FF4837101FB67
S3150040219003F31344063302461A800023BB720EE053
S315004021A0FA7ABB7A39684FF4837000FB02F20A442C
S315004021B01344083301221A70BB7A0133BB72FB7A8F
S315004021C0DB007A681344DB78BA7A9A42E8D3FB7A22
S315004021D00133FB72FB7A1F2B7FF66EAF3B68FA7AB0
S315004021E01A70FB6818461437BD4680BC704700BF5E
S315004021F0F1D4D63333AAA55580B485B000AF034693
S31500402200FB710B46BB7113467B710023FB737B79D5
S31500402210012B06D1FA79BB799A4202D10123FB738D
S315004022200CE07B79002B08D1FA79BB791343DBB2FA
S31500402230002B02D00123FB7300E000BFFB7B184656
S315004022401437BD4680BC704780B584B000AF786017
S3150040225039600D4BFB600D497868FFF723FFF86046
S31500402260FB680B4A934208D10A493868FFF71AFFC0
S31500402270F860FB68064A934200E000BFFB681846D8
S315004022801037BD4680BD00BFF1D4D63326C04020AE
S3150040229033AAA555E8E0402090B589B000AF044682
S315004022A0084611461A462346FB710346BB710B4648
S315004022B07B7113463B717E4BFB610223FB76FB7EB3
S315004022C042F2C20202FB03F37A4A13447B61BB6BC0
S315004022D0002B02D1784BFB61E5E0FB79012B09D15C
S315004022E00123FB76FB7E42F2C20202FB03F3714AF4
S315004022F013447B610023FB7463E0FB7C7A694FF4F3
S31500402300837101FB03F3134403331B783A799A42F2
S3150040231054D1FB7C7A694FF4837101FB03F3134478
S31500402320023319787A79BB791846FFF765FF034679
S31500402330002B43D0FB7C7A694FF4837101FB03F396
S31500402340134404331B7897F830209A4236D1FB7CED
S315004023507A694FF4837101FB03F3134406331B88F8
S31500402360BA8E9A422AD1FB7C4FF4837202FB03F366
S315004023707A6913440233BB600023BB7419E0BB7C0B
S31500402380BA6813449B79012B10D14C4BFB61BB7C43
S31500402390BA68134400229A71FB7E1A04FB7C1B0226
S315004023A01A43BB7C1A43BB6B1A607CE0BB7C01338F
S315004023B0BB74BB68DB78BA7C9A42E0D3FB7C0133C2
S315004023C0FB747B691B78FA7C9A4296D30023FB7494
S315004023D063E0FB7C7A694FF4837101FB03F313449A
S315004023E003331B783A799A4254D1FB7C7A694FF48D
S315004023F0837101FB03F31344023319787A79BB796D
S315004024001846FFF7F9FE0346002B43D0FB7C7A695A
S315004024104FF4837101FB03F3134404331B7897F89D
S3150040242030209A4236D1FB7C7A694FF4837101FBA6
S3150040243003F3134406331B88BA8E9A422AD8FB7C90
S315004024404FF4837202FB03F37A6913440233FB6051
S315004024500023BB7419E0BB7CFA6813449B79012BBB
S3150040246010D1164BFB61BB7CFA68134400229A716B
S31500402470FB7E1A04FB7C1B021A43BB7C1A43BB6BD4
S315004024801A6010E0BB7C0133BB74FB68DB78BA7C16
S315004024909A42E0D3FB7C0133FB747B691B78FA7C60
S315004024A09A4296D300BFFB6918462437BD4690BD75
S315004024B0F1D4D633649F40206AA2A55533AAA555C8
S315004024C080B588B004AF3B600346FB710B46BB71D9
S315004024D01346BB800023FB73FB79012B01D10123FB
S315004024E0FB73FA7BF8793B680293BB880193BB790F
S315004024F00093134600220121FFF7CEFE03461846FD
S315004025001037BD4680BD000080B487B000AF78600C
S315004025101E4B7B617B681B681B0CFB747B681B68CE
S315004025201B0ABB747B681B687B740023FB607B685B
S315004025301B68B3F1FF3F02D1154B7B611FE0FA7C6C
S31500402540B97C7B7C4FF4837000FB01F142F2C20000
S3150040255000FB02F20A4413440E4A13440833FB605C
S31500402560FB681B78002B09D1FB6801221A707B6837
S315004025704FF0FF321A60064B7B6100E000BF7B697B
S3150040258018461C37BD4680BC704700BFF1D4D633D1
S3150040259033AAA555649F402080B584B000AF7860CB
S315004025A07A6801210C2000F01DF8F860FB68184697
S315004025B01037BD4680BD000080B500AF02E0084B35
S315004025C000221A700020FDF7F9FF034603F48073DA
S315004025D09BB2002BF3D0024B01221A7000BF80BD84
S315004025E0AA01412080B58AB002AF0346B9607A603D
S315004025F0FB811C4BFB610020FFF718FD0346FB7671
S31500402600FB7EFF2B28D0184B1968FA7E1346DB0059
S315004026109B1A1B010B447B6170220021786900F0F4
S315004026208BFB7B69114A1A607B69FA891A817B693F
S31500402630BA68DA607A687B691A610D4BF97E7A6905
S3150040264001929A6800920CCB0020FFF743FCF86198
S31500402650FB69084A934200E000BFFB6918462037F1
S31500402660BD4680BDF1D4D633B42E40000200A5004D
S31500402670BC2E400033AAA55580B588B002AF78601D
S3150040268039601E4B7B6100233B610020FDF71AFF3A
S315004026900346FB73FB7BFF2B02D1194B7B6127E083
S315004026A07B68102B02D9164B7B6121E0154B1968CC
S315004026B0FA7B1346DB009B1A1B010B443B617022DD
S315004026C00021386900F038FB3B690F4A1A603B69C4
S315004026D07A689A603B693A68DA600C4BF97B3A69EA
S315004026E001929A6800920CCB0020FFF7F3FB7861C9
S315004026F07B6918461837BD4680BD00BF64A1A55505
S3150040270099A3A555B42E40000004A500BC2E400058
S3150040271080B588B002AF78600B46FB70254B7B6175
S3150040272000233B610020FDF7CDFE0346FB73FB7B98
S31500402730FF2B02D1204B7B6136E07B68102B02D900
S315004027401D4B7B6130E0FB781F2B08D9FB78402B73
S3150040275005D8FB7803F00703DBB2002B02D0164BFB
S315004027607B6121E0154B1968FA7B1346DB009B1A07
S315004027701B010B443B6170220021386900F0DCFAF2
S315004027803B6952221A603B697A689A603B69FA78DB
S315004027901A730B4BF97B3A6901929A6800920CCBFB
S315004027A00020FFF797FB78617B6918461837BD46CE
S315004027B080BD00BF64A1A55599A3A555B42E400080
S315004027C0BC2E4000F0B5AFB006AFFFF7F5FEAF49FF
S315004027D0AF48FEF7BFF8C7F89C00D7F89C30AD4A23
S315004027E0934200D0FEE7A949A948FFF72DFDC7F857
S315004027F09C00D7F89C30A74A934200D0FEE7A648F3
S31500402800FFF7CAFEC7F89C00A44BC7F89830A44B04
S31500402810BB67A44B7B67A44B10220121D7F89800D5
S31500402820FEF77AF8C7F89C00D7F89C30994A93424D
S3150040283000D0FEE70120FEF72DF803469BB20022AA
S315004028400292994A0192009301234FF40162882132
S315004028509648FFF733F8C7F89C00D7F89C308D4A66
S31500402860934200D0FEE707F17C0100230093904B92
S31500402870904A8E48FEF714FEC7F89C000120FEF7EA
S3150040288009F803469BB207F1780200930023834977
S315004028908648FFF77DFAC7F89C00D7F89C307D4AFA
S315004028A0934200D0FEE7844B1B89DB009AB2834BF0
S315004028B030210020FFF704FEBB6F7F4A13607F4B39
S315004028C01B687D4A53607C48FFF788F8C7F89C0030
S315004028D007F1640300221A605A609A60DA6040F693
S315004028E00F03A7F864304FF48073A7F866301223BD
S315004028F087F87030704B5D68B7F866300733DB0891
S315004029009EB207F1740C6C4607F164030FCB84E862
S315004029100F000023624631462846FEF7F1FFC7F80E
S315004029209C00D7F89C305B4A934200D0FEE7786F14
S31500402930634B1B8807F16401624AFEF705FEC7F840
S315004029409C00112387F85830102387F85C30786F45
S31500402950002301935C4B00935C4B5D4A1021FFF7CB
S31500402960CBF9C7F89C00786F00230193564B009330
S31500402970564B574A1021FFF7E5F9C7F89C004FF030
S31500402980FF337B652823C7F894300D23C7F8903072
S315004029900E23C7F88C30D7F89430DBB21946D7F8F7
S315004029A09000FFF7B5FEC7F89C00D7F89C30394A2F
S315004029B0934200D0FEE7D7F89430DBB21946D7F8F9
S315004029C08C00FFF7A5FEC7F89C00D7F89C30314A2B
S315004029D0934200D0FEE74FF40001D7F89000FFF78E
S315004029E04BFEC7F89C00D7F89C302A4A934200D049
S315004029F0FEE74FF40001D7F88C00FFF73DFEC7F81D
S31500402A009C00D7F89C30234A934200D0FEE7786F6B
S31500402A100023059307F1540304932B4B0393802320
S31500402A2002932B4B0193802300930023D7F89020E9
S31500402A300121FDF77FFEC7F89C00786F00230593C0
S31500402A4007F154030493204B039380230293204BB6
S31500402A500193802300930023D7F88C200021FDF7B3
S31500402A6069FEC7F89C00786F1A4B1B78DB00DBB217
S31500402A70194A0092164A8021FFF7B2F8C7F89C001F
S31500402A80D7F89C30034A934228D0FEE7AC2F40004B
S31500402A90042F400033AAA555300641200006020007
S31500402AA00009020002020100F00141200007020075
S31500402AB034064120E6804020BC804020E88040200B
S31500402AC0EC014120AC01412030024120E080402011
S31500402AD004304000E480402030044120786F0D4BA4
S31500402AE01B78DB00DBB20C4A00920C4A8021FFF7D0
S31500402AF0BDF8C7F89C00D7F89C30094A934200D0ED
S31500402B00FEE700233B603B1D50220021184600F0A3
S31500402B1013F9FEE7E48040203004412004304000B1
S31500402B2033AAA55500000000374B1B6803F001038C
S31500402B30002B10D0354BDD08354C05E02EA3D3E9EC
S31500402B400023C4E9002308342B465D1E002BF5D133
S31500402B502D4B01221A602F4E1AE04FF000044FF021
S31500402B6000050EE032682346DB0002EB030C24A38B
S31500402B70D3E90023CCE90023601C45F1000104465B
S31500402B800D46D6E90223944275EB0303EAD3103689
S31500402B90214B9E42E1D300BF204B1C4684F308885C
S31500402BA000BF00F049F81E4C0EE0002508E0226800
S31500402BB0AB001A446168AB000B4412681A600135D9
S31500402BC0A3689D42F3D30C34164B9C42EDD3164C6E
S31500402BD00BE0002505E02268AB00134400221A6092
S31500402BE0013563689D42F6D30834104B9C42F0D3BE
S31500402BF0FDF72EFCAFF30080EDFEFECAEFBEADDE64
S31500402C00FECAEDFEEFBEADDE00C0284000800000EB
S31500402C1000004020383140009831400000004520F7
S31500402C2098314000A4314000A4314000A431400016
S31500402C3080B400AFFEE7000080B400AF044B054A05
S31500402C409A60054B054A1A6000BFBD4680BC704776
S31500402C5000ED00E000004000EC80402040787D011F
S31500402C6080B400AF62B600BFBD4680BC704780B43A
S31500402C7000AF72B600BFBD4680BC704780B400AF9F
S31500402C80FEE780B400AFFEE780B400AFFEE780B455
S31500402C9000AFFEE780B400AFFEE780B400AFFEE7CA
S31500402CA080B400AFFEE780B400AFFEE780B400AF6B
S31500402CB0FEE7000008B50021044600F04FF8044B3B
S31500402CC01868C36B03B19847204600F0E5F800BF8B
S31500402CD02831400070B50D4D0D4C641BA4100026E4
S31500402CE0A64209D10B4D0C4C00F0D8F8641BA41039
S31500402CF00026A64205D170BD55F8043B98470136DB
S31500402D00EEE755F8043B98470136F2E70885402040
S31500402D100885402008854020108540200A4491427D
S31500402D2000F1FF3300D1704710B511F8014B03F89D
S31500402D30014F9142F9D110BD02440346934200D15E
S31500402D40704703F8011BF9E7024B13B1024800F044
S31500402D506BB8704700000000012E40002DE9F74F88
S31500402D60264B1B68019307460E464FF0000A019B0F
S31500402D70D3F8485155B16C6804F1FF38013405EB7E
S31500402D8084044FF00109B8F1000F02DA03B0BDE840
S31500402D90F08F3EB1D4F80021B24203D008F1FF389B
S31500402DA0043CF0E769682268013941450CBFC5F823
S31500402DB00480C4F800A0002AF0D0D5F88811D5F8D0
S31500402DC004B009FA08FC1CEA010F09D1904769686A
S31500402DD0019B5945D3F84821C9D19542DED0C6E773
S31500402DE0D5F88C01D4F880101CEA000F02D1384681
S31500402DF09047ECE708469047E9E700BF2831400096
S31500402E0038B5074D074C641BA4101CB9BDE83840C3
S31500402E1000F04AB8013C55F824309847F5E700BF22
S31500402E201085402014854020002301461A46184646
S31500402E3000F000B8F0B5174C2568D5F848411CB9E4
S31500402E4005F5A674C5F8484165681F2D1EDCB0B16E
S31500402E5004EB85070228C7F88820D4F888614FF02C
S31500402E60010202FA05F246EA0206C4F88861C7F88A
S31500402E70083102BFD4F88C311343C4F88C316B1C33
S31500402E800235636044F825100020F0BD4FF0FF3056
S31500402E90FBE700BF28314000FEE70000F8B500BF61
S31500402EA0F8BC08BC9E467047F8B500BFF8BC08BCE5
S31500402EB09E467047E49B4020A49D402000000000B1
S31500402EC000000000000000005AC373D42ED9242706
S31500402ED0D8FF6CFFF7EAE13D66D3C7E536CC749878
S31500402EE059E2A49E3EEA2AD846C9FBB7DDD99A1EC6
S31500402EF06A54A89A87DB98DB6B8229F577B552E04E
S31500402F009AEED5E60300110C80000000030112047E
S31500402F1080000000030112070001000003012002A7
S31500402F200002000003018703090200000301880133
S31500402F30090200000301890109020000030197020A
S31500402F4000100000030198010010000003019901E0
S31500402F500010000003021203800000000302120367
S31500402F600001000003022001000400000302870163
S31500402F7009020000030288010902000003028901D8
S31500402F8009020000030297010010000003029801A5
S31500402F9000100000030299010010000001028801A0
S31500402FA009020000000000000000000003001101BB
S31500402FB0800000000300120A800000000100120A8F
S31500402FC000010000030020060004000003009802F0
S31500402FD00008000003009901000400000300870276
S31500402FE009020000030088050902000003003002C0
S31500402FF07E020000030030010008000000000000CF
S31500403000000000006BC1BEE22E409F96E93D7E1156
S315004030107393172AFFFFFFFFFFFFFFFF000000002B
S31500403020000000000000000000000000000000005A
S31500403030000000000000000000000000000000004A
S31500403040000000000000000000000000000000003A
S31500403050000000000000000000000000000000002A
S31500403060000000000000000000000000000000001A
S31500403070000000000000000000000000000000000A
S3150040308000000000000000000000000000000000FA
S3150040309000000000000000000000000000000000EA
S315004030A000000000000000000000000000000000DA
S315004030B000000000000000000000000000000000CA
S315004030C000000000000000000000000000000000BA
S315004030D000000000000000000000000000000000AA
S315004030E0000000000000000000000000000000009A
S315004030F0000000000000000000000000000000008A
S315004031000000000000000000000000000000000079
S315004031100000000000000000000000000000000069
S315004031200000000000000000F08040200000000089
S30D0040313018D3FF7F01000000E7
S315004031380080402000000000A300000000000000BE
S3150040314818854020000000003410000000000000F0
S31500403158B806412000000000000200000000000000
S3150040316800F04420000000000002000000000000BB
S3150040317800000000000000000020000000000000E1
S315004031880000002000000000004000000000000091
S31100403198A83140000080402046010000A5
S315004031A800C0384000C04E40010101011003000034
S315004031B800000000000000000000000000000000C1
S315004031C80000000011000000100000000000000090
S315004031D895D8AFB8A4B7245CE79F9F9C5DDD40DED9
S315004031E861B35905DCB638F2B875404A985B3F7A00
S315004031F84508000100000000000000001200000021
S31500403208FFFFFFFF50804020000000000000000044
S315004032180000000000000000308040202000000030
S315004032280A0800010000000000000000120000002B
S31500403238FFFFFFFF808040200000000000000000E4
S315004032480000000000000000308040202000000000
S31500403258109B40200101000001010000FFFFFFFF15
S31500403268FFFFFFFF400003003C000000C82E40005F
S3150040327801000000000000000000000000000000FF
S315004032881000000010008400FFFFFFFF40787D011A
S3150040329800000000DC83402040844020A484402075
S315004032A800000000000000000000000000000000D0
S315004032B800000000000000000000000000000000C0
S315004032C800000000000000000000000000000000B0
S315004032D800000000000000000000000000000000A0
S315004032E80000000000000000000000000000000090
S315004032F80000000000000000000000000000000080
S31500403308000000000000000000000000000000006F
S31500403318000000000000000000000000000000005F
S31500403328000000000000000000000000000000004F
S31500403338000000000000000001000000000000003E
S315004033480E33CDAB34126DE6ECDE05000B00000003
S31500403358000000000000000000000000000000001F
S31500403368000000000000000000000000000000000F
S3150040337800000000000000000000000000000000FF
S3150040338800000000000000000000000000000000EF
S315004036A80000000000000000492D400029044000A9
S30D004036B801044000000000007F
S31510000000A55AA55A0100000000000000000040009B
S3151000001000000000000000000000000000000000CA
S3151000002018304000143040000000000000000000AE
S3151000003000000000000000000000000000000000AA
S31510000040000000000000000000000000000000009A
S31510000050000000000000000000000000000000008A
S31510000060000000000000000000000000000000007A
S31510000070000000000000000000000000000000006A
S31510000080000000000000000000000000000000005A
S31510000090000000000000000000000000000000004A
S315100000A0000000000000000000000000000000003A
S315100000B0000000000000000000000000000000002A
S315100000C0000000000000000000000000000000001A
S315100000D0000000000000000000000000000000000A
S315100000E000000000000000000000000000000000FA
S315100000F000000000000000000000000000000000EA
S70500402B2966
