S02300005333324B3334345F44656D6F4170705F53657373696F6E4B6579732E737265637F
S315004000000000452079224000CD234000D323400004
S31500400010D9234000DF234000E523400000000000D4
S31500400020000000000000000000000000EB2340003C
S31500400030F123400000000000F7234000FD2340006C
S3150040004081234000812340008123400081234000DA
S3150040005081234000812340008123400081234000CA
S3150040006081234000812340008123400081234000BA
S3150040007081234000812340008123400081234000AA
S31500400080812340008123400081234000812340009A
S31500400090812340008123400081234000812340008A
S315004000A0812340008123400081234000812340007A
S315004000B0812340008123400081234000812340006A
S315004000C0812340008123400081234000812340005A
S315004000D0812340008123400081234000812340004A
S315004000E0812340000000000081234000812340001E
S315004000F000000000812340008123400000000000F2
S315004001008123400081234000812340008123400019
S315004001108123400081234000812340008123400009
S3150040012081234000000000000000000000000000A5
S3150040013000000000812340008123400081234000CD
S3150040014081234000812340008123400000000000BD
S3150040015000000000812340008123400081234000AD
S31500400160812340008123400081234000000000009D
S31500400170000000008123400081234000812340008D
S315004001808123400081234000812340008123400099
S315004001908123400081234000812340008123400089
S315004001A00000000000000000000000000000000009
S315004001B08123400081234000000000000000000031
S315004001C0812340008123400081234000000000003D
S315004001D000000000000000008123400000000000F5
S315004001E0000000008123400081234000812340001D
S315004001F08123400081234000812340008123400029
S315004002008123400081234000812340008123400018
S315004002108123400081234000812340008123400008
S3150040022081234000812340008123400081234000F8
S315004002308123400000000000000000000000000094
S315004002400000000000000000000000000000000068
S315004002500000000000000000000000000000000058
S315004002600000000000000000000000008123400064
S31500400270000000008123400081234000812340008C
S315004002808123400081234000812340008123400098
S315004002908123400081234000812340008123400088
S315004002A08123400081234000812340008123400078
S315004002B08123400000000000000000000000000014
S315004002C00000000081234000812340000000000020
S315004002D0000000008123400081234000812340002C
S315004002E0812340008123400081234000000000001C
S315004002F0000000008123400081234000812340000C
S3150040030000000000000000008123400000000000C3
S315004003108123400081234000812340008123400007
S3150040032081234000812340000000000000000000BF
S3150040033000000000812340008123400000000000AF
S3150040034081234000812340008123400081234000D7
S31500400350812340008123400000000000000000008F
S31500400360000000000000000081234000812340007F
S3150040037081234000812340008123400081234000A7
S315004003800000000000000000000000000000000027
S315004003900000000000000000000000000000000017
S315004003A00000000000000000000000000000000007
S315004003B000000000000000000000000000000000F7
S315004003C00348044B834202D0034B03B1184770479E
S315004003D0D8844020D88440200000000005480649C3
S315004003E00B1AD90F01EBA301491002D0034B03B1FD
S315004003F018477047D8844020D88440200000000029
S3150040040010B5064C237843B9FFF7DAFF044B13B116
S315004004100448AFF300800123237010BDD8844020E8
S31500400420000000000429400008B5044B1BB10449F4
S315004004300448AFF30080BDE80840CFE70000000065
S31500400440DC84402004294000A3F5803A704700BF71
S31500400450174B002B08BF134B9D46FFF7F5FF0021B6
S315004004608B460F461348144A121A02F00DF80E4BEB
S31500400470002B00D098470D4B002B00D0984700200A
S31500400480002104000D000D48002802D00C4802F05F
S3150040049073F801F0C7FF2000290001F0EFFC01F0DE
S315004004A0B1FF00BF0000080000000000000000008F
S315004004B000004520D884402080F340207925400024
S315004004C05125400080B485B000AF0346FB71FB79EF
S315004004D0284AD35C0133BB73FF237B730023FB7332
S315004004E03EE0FB79244A52F8233003F582731A68BA
S315004004F0BB7B012101FA03F31340002B1BD1FB798F
S315004005001D4A52F8233003F592731A68BB7B0121CA
S3150040051001FA03F31340002B0DD0FB79164A52F82B
S31500400520233003F596731A68BB7B012101FA03F366
S315004005301340002B08D0BB7B0133BB73BB7B022B24
S315004005400BD90123BB7308E0BB7B7B73FB797A7BBA
S31500400550013AD1B2074AD15405E0FB7B0133FB7324
S31500400560FB7B012BBDD97B7B18461437BD4680BC2F
S31500400570704700BFF48440200080402080B483B0A0
S3150040058000AF03460A46FB711346BB71FB790A4A24
S3150040059052F8233003F596731A68BB79012101FAA4
S315004005A003F31340002B14BF01230023DBB218468C
S315004005B00C37BD4680BC70470080402080B485B073
S315004005C000AF0346FB710023FB60FB79084A52F8F3
S315004005D0233003F582731B68FB60FB681B0CFB60D2
S315004005E0FB689BB218461437BD4680BC704700BFB7
S315004005F00080402080B485B000AF03460A46FB71B8
S315004006001346BB71FB79084A52F82330BA799200F7
S31500400610134403F520731B68FB60FB6818461437C8
S31500400620BD4680BC704700BF0080402080B586B084
S3150040063002AF396011461A460346FB710B46BB7141
S3150040064013467B712C4B1B781A462C4B53F82220B1
S315004006502B4B1B7819460B46DB005B1A1B011344D8
S31500400660FB6070220021F86801F00EFFFB68254A06
S315004006701A60FB680833BB60BB68FA791A703B683E
S31500400680DAB2BB685A70BB68BA799A70BB687A7935
S31500400690DA70BB68BA695A60BB68FA699A603A6AA6
S315004006A0BB68DA60BB687A6A1A61BA6ABB685A6123
S315004006B0BB68FA6ADA613A6BBB681A62BB687A6BE6
S315004006C05A62BA6BBB689A62FA6BBB68DA62BB68FD
S315004006D097F840201A76084B1878094B19780A4B38
S315004006E0FA6801929A6800920CCB00F0E5FF034647
S315004006F018461037BD4680BD008540200426400080
S31500400700088040200402A5000C26400080B590B029
S315004007100CAFF860B9607A603B6097F830300A9366
S31500400720FB6A0993BB6A08937B6A07933B6A069305
S31500400730FB690593BB6904933B6803937B6802930B
S31500400740BB680193FB68009301231222002100201D
S31500400750FFF76CFF034618461037BD4680BD80B58F
S3150040076090B00CAFF860B9607A603B6097F8303073
S315004007700A93FB6A0993BB6A08937B6A07933B6AB1
S315004007800693FB690593BB6904933B6803937B68B7
S315004007900293BB680193FB68009300231222002159
S315004007A00020FFF743FF034618461037BD4680BD7D
S315004007B080B588B002AFF8607A601A460B46FB7285
S315004007C01346BB7200231A46224B53F822200123BC
S315004007D019460B46DB005B1A1B0113447B617022F2
S315004007E00021786901F050FE7B691B4A1A607B69DB
S315004007F008333B613B69FA7A1A703B69FA685A607A
S315004008003B697A689A603B69BA7A1A733B693A6A75
S315004008101A617A6A3B695A613B6997F828201A76C9
S31500400820FA6A3B69DA613A6B3B691A623B6997F847
S3150040083034205A7300200121084B7A6901929A6844
S3150040084000920CCB00F038FF034618461837BD46D9
S3150040085080BD00BF042640000B02A5000C264000C8
S3150040086080B586B002AF7860084611461A46034600
S31500400870FB700B463B801346BB70214B1B781A46D8
S31500400880204B53F82220204B1B7819460B46DB00A1
S315004008905B1A1B011344FB6070220021F86801F0CB
S315004008A0F3FDFB684FF483721A60FB680833BB6044
S315004008B0BB68FA781A74BB683A889A80BB68BA787B
S315004008C05A74BB699AB2BB68DA80FA69BB689A61A6
S315004008D0BB6803221A75BB687A681A60084B187899
S315004008E0094B1978094BFA6801929A6800920CCB29
S315004008F000F0E2FE034618461037BD4680BD00BFF5
S315004009000185402004264000098040200C264000F6
S3150040091080B483B000AF78607B68013B092B32D846
S3150040092001A252F823F000BF510940005709400088
S315004009305D09400063094000690940006F094000B5
S3150040094075094000870940007B0940008109400045
S315004009504FF4807318E04FF4C07315E040F209235A
S3150040096012E04FF480730FE04FF4A0730CE04FF4A5
S31500400970C07309E04FF4007306E04FF4807303E060
S315004009804FF4807300E0002318460C37BD4680BC08
S31500400990704700BF90B587B002AFF8607A603B60A1
S315004009A00B46FB727B689CB2FB7A1846FFF7B0FF9A
S315004009B00146FA7A3B680193009113462246872105
S315004009C0F868FFF74DFF034618461437BD4690BDFD
S315004009D080B588B002AF78603960194B1B781A46EB
S315004009E0184B53F82220184B1B7819460B46DB0050
S315004009F05B1A1B0113447B617B6908333B617022A0
S31500400A000021786901F040FD7B6940F201121A60CD
S31500400A107A683B691A603A683B695A60084B1878AD
S31500400A20094B1978094B7A6901929A6800920CCB66
S31500400A3000F042FEF860FB6818461837BD4680BD98
S31500400A4002854020042640000A8040200C264000B3
S31500400A5080B483B000AF786039607B68002B16D0D5
S31500400A603B681B0CDBB2012B11D17B681B7B882BAF
S31500400A700DD07B681B7B892B09D07B681B7B982B11
S31500400A8005D07B681B7B992B01D0012300E0002316
S31500400A90DBB218460C37BD4680BC704780B584B083
S31500400AA000AF78607B681B7803F00203002B00F0F0
S31500400AB09F807B681B69002B40F09A800023FB6077
S31500400AC04D4B01221A707B685B685A687B685B688D
S31500400AD01B6819461046FFF7BBFF0346002B17D08D
S31500400AE0FB68464A98187B685B685B681022194623
S31500400AF001F0BCFC7B685B685B68414A13607B68BD
S31500400B005B68FA683D490A445A60FB681033FB60EB
S31500400B107B685B689B68002B1DD0FB68374A98183A
S31500400B207B685B6899687B685B689B891A4601F0BD
S31500400B309DFC7B685B689B68324A13607B685B6898
S31500400B40FA682E490A449A607B685B689B891A4614
S31500400B50FB681344FB607B685B681B69002B1DD0F8
S31500400B60FB68264A98187B685B6819697B685B68EE
S31500400B709B8A1A4601F07AFC7B685B681B69224AAD
S31500400B8013607B685B68FA681C490A441A617B6893
S31500400B905B689B8A1A46FB681344FB607B685B680C
S31500400BA09B69002B1DD0FB68144A98187B685B68CC
S31500400BB099697B685B689B8B1A4601F057FC7B689A
S31500400BC05B689B69114A13607B685B68FA680B49EE
S31500400BD00A449A617B685B689B8B1A46FB681344A0
S31500400BE0FB607B68054A1A61FB689AB27B689A8209
S31500400BF000BF1037BD4680BD048540200885402093
S31500400C00F08A4020E48A4020E88A4020EC8A40204E
S31500400C1080B582B000AF78601F4B1B78002B37D071
S31500400C201D4B00221A7040F2DC5200211B4801F095
S31500400C302BFC7B685B681A4A12689A607B685B6823
S31500400C40184A12681A617B685B68174A12689A618B
S31500400C50164B1A687B685B681B6819461046FFF797
S31500400C60F7FE0346002B04D07B685B680F4A126888
S31500400C705A600B4B00221A600A4B00221A600A4B3C
S31500400C8000221A60094B00221A607B6800221A6112
S31500400C9000BF0837BD4680BD0485402008854020FA
S31500400CA0E48A4020E88A4020EC8A4020F08A4020AE
S31500400CB080B582B000AF7860064B1B78064A117843
S31500400CC07A68184600F00AF8034618460837BD46C3
S31500400CD080BD00BF038540200B80402080B588B092
S31500400CE000AF03463A60FB710B46BB7107F10C033C
S31500400CF000221A605A609A60DA603B685B681B683B
S31500400D001B0CDBB2012B0ED13B685B681B6807F1FD
S31500400D100C021146184600F0FFF90346084A934272
S31500400D2001D0012300E00023FB77FA7FB979F879F7
S31500400D303B6800F007F8034618462037BD4680BD9D
S31500400D401753AAA580B588B002AF3B600346FB7136
S31500400D500B46BB7113467B71FB79714A52F82310DF
S31500400D60BA791346DB009B1A1B010B443B613B6976
S31500400D700833FB6070220021386901F085FB7B79DE
S31500400D80002B0CD03B685B681B680021184600F0BE
S31500400D9085F978617B69634A934240F0BB80386845
S31500400DA0FFF77CFE3B694FF482721A603B685B68D2
S31500400DB05A683B685B681B6819461046FFF748FE51
S31500400DC00346012B10D03B685B681B681B0CDBB2EB
S31500400DD0012B07D1544B1B680133534A1360524BC6
S31500400DE01B6803E0002301E04F4B1B683A685268DA
S31500400DF0526853603B685B681A68FB681A603B68D8
S31500400E005B685B681A46FB685A603B685B689B6830
S31500400E101A46FB689A603B685B689A89FB689A82C7
S31500400E203B685B681B691A46FB68DA603B685B682F
S31500400E309A8AFB68DA823B685B689B691A46FB685C
S31500400E401A613B685B689A8BFB681A83FB684FF0B4
S31500400E50FF32DA613B689B68002B13D03B689B6886
S31500400E601B68B3F1FF3F0DD03B689B681A68FB686F
S31500400E70DA61FB6803F120003B68DB6818221946FB
S31500400E8001F0F4FAFB684FF0FF321A643B689B6945
S31500400E90002B27D03B689B691B68B3F1FF3F21D0ED
S31500400EA03B689B691A68FB681A64FB6803F1440057
S31500400EB03B68DB690C22194601F0D8FA3B681B6A8D
S31500400EC01A46FB685A653B689A8CFB68A3F8502023
S31500400ED03B689B6A1A46FB689A653B689A8DFB6835
S31500400EE0A3F852203B681B691A46FB68DA633B68E5
S31500400EF09A8AFB681A870D4BB979F8793A69019253
S31500400F009A6800920CCB00F0D7FB78613868FFF7FF
S31500400F107FFE00E000BF7B6918461837BD4680BD9E
S31500400F200426400033AAA555048B40200C264000D9
S31500400F3080B588B002AF7860084611461A46034627
S31500400F40FB700B463B801346BB704E4B1B781A46D4
S31500400F504D4B53F822204D4B1B7819460B46DB0070
S31500400F605B1A1B0113443B613B690833FB603B8CB6
S31500400F700733DB08FB82BB78092B26D0BB780A2BCC
S31500400F8023D0BB780B2B20D0BB780C2B1DD097F8E9
S31500400F902430002B06D13B8C0733DB089BB25B0029
S31500400FA0FB8212E097F82430022B06D13B8C0733A4
S31500400FB0DB089BB20133FB8207E03B8C0733DB083F
S31500400FC09BB25B009BB20133FB82702200213869E1
S31500400FD001F05AFA102200212D4801F055FA2C4A08
S31500400FE0FB7813732A4A3B881380294ABB7853738C
S31500400FF0274A3B8C53807B681B0CDBB2012B07D105
S31500401000244B1B680133234A1360224B1B6800E0C4
S3150040101000231F4A53603B694FF482721A601C4A90
S31500401020FB685A60BA6AFB689A60FB68FA8A9A82D9
S31500401030FA6AFB681A613B8C0733DB089AB2FB6895
S315004010401A83FB687A681A60FB684FF0FF32DA61F0
S31500401050FB684FF0FF321A64FB6897F8242083F848
S315004010605C20084B1878094B19780B4B3A6901926A
S315004010709A6800920CCB00F01FFB034618461837BF
S31500401080BD4680BD03854020042640000B8040209D
S31500401090F48A4020048B40200C26400080B586B060
S315004010A002AF78600B46FB70174B1B781A46174BFE
S315004010B053F82220164B1B7819460B46DB005B1A69
S315004010C01B011344FB6070220021F86801F0DCF933
S315004010D0FB684FF481721A60FB687A689A60FB6815
S315004010E0FA781A73084B1878094B1978094BFA683D
S315004010F001929A6800920CCB00F0DEFA034618463D
S315004011001037BD4680BD00BF038540200426400001
S315004011100B8040200C26400080B582B000AF78603E
S315004011203960064B1878064B19783B687A6800F0A8
S3150040113009F8034618460837BD4680BD038540205A
S315004011400B80402080B588B002AFBA607B60034612
S31500401150FB730B46BB73FB7B144A52F82310BA7BD6
S315004011601346DB009B1A1B010B447B617B690833EA
S315004011703B6170220021786901F086F97B690C4A4F
S315004011801A603B69BA681A607A683B695A60094BCB
S31500401190B97BF87B7A6901929A6800920CCB00F091
S315004011A08BFA034618461837BD4680BD04264000D4
S315004011B00301A5000C26400080B586B004AF7860D8
S315004011C0084611461A460346FB700B463B801346BB
S315004011D0BB70B8783A88F978BB6903937B69029308
S315004011E0002301933B8A009303467868FFF7A0FEED
S315004011F0034618460837BD4680BD000090B58BB003
S3150040120002AFF8607A601A460B467B8113467B72C2
S315004012102B4BFB612B4B1B781A462B4B53F822204A
S315004012202A4B1B7819460B46DB005B1A1B011344FD
S31500401230BB61BB6908337B6197F83C107A8E787A3C
S315004012407B6800F0F3FCF861FB69214A93422FD199
S3150040125070220021B86901F017F9BB6940F2091202
S315004012601A607B69FA681A607B697A899A807B681A
S315004012701A687B699A607B6903F10C0407F13003B5
S315004012800FCB84E80F000F4B1878104B1978114B91
S31500401290BA6901929A6800920CCB00F00DFAF86197
S315004012A0FB690B4A934205D0786800F0E3FC02E004
S315004012B000BF00E000BFFB6918462437BD4690BD1D
S315004012C0F1D4D633088B4020042640000C804020C1
S315004012D033AAA5550C26400080B586B002AF78608B
S315004012E01A4B1B781A461A4B53F82220194B1B7877
S315004012F019460B46DB005B1A1B011344FB60FB6877
S315004013000833BB6070220021F86801F0BDF8FB6825
S315004013104FF484721A60BB6805221A70BB680433A6
S3150040132024227968184601F0A1F8084B1878094B31
S315004013301978094BFA6801929A6800920CCB00F032
S31500401340BBF9034618461037BD4680BD088B402082
S31500401350042640000C8040200C26400082B080B518
S3150040136086B002AF396007F1180181E80C000346E8
S31500401370FB7100231A46264B53F8222001231946B7
S315004013800B46DB005B1A1B011344FB6070220021F5
S31500401390F86801F079F8FB681E4A1A60FB68083362
S315004013A0BB60BB68FA791A703B68DAB2BB685A70A0
S315004013B0BB68043307F1180207CA83E80700BB6815
S315004013C001229A70BB687A6A1A61BB68BA6A5A6126
S315004013D0FA6ABB689A613A6BBB68DA617A6BBB683A
S315004013E01A62BB6897F83820DA70002001210A4B50
S315004013F0FA6801929A6800920CCB00F05DF90346B8
S3150040140018461037BD46BDE8804002B0704700BF61
S31500401410042640000102A5000C26400082B080B59B
S3150040142086B002AF396007F1180181E80C00034627
S31500401430FB7100231A46264B53F8222001231946F6
S315004014400B46DB005B1A1B011344FB607022002134
S31500401450F86801F019F8FB681E4A1A60FB68083301
S31500401460BB60BB68FA791A703B68DAB2BB685A70DF
S31500401470BB68043307F1180207CA83E80700BB6854
S3150040148000229A70BB687A6A1A61BB68BA6A5A6166
S31500401490FA6ABB689A613A6BBB68DA617A6BBB6879
S315004014A01A62BB6897F83820DA70002001210A4B8F
S315004014B0FA6801929A6800920CCB00F0FDF8034658
S315004014C018461037BD46BDE8804002B0704700BFA1
S315004014D0042640000102A5000C26400080B590B0CD
S315004014E008AFF860B9607A603B6011233B75102302
S315004014F03B7697F82C300693BB6A05933B6804937A
S315004015007B680393BB680293FB680193FB69009376
S3150040151007F114030CCB00210020FFF71FFF034601
S3150040152018462037BD4680BD80B590B008AFF860FC
S31500401530B9607A603B6011233B7510233B7697F880
S315004015402C300693BB6A05933B6804937B680393F0
S31500401550BB680293FB680193FB69009307F1140390
S315004015600CCB00210020FFF759FF034618462037D1
S31500401570BD4680BD80B58AB002AFF860B9607A607A
S31500401580FB70274BFB61274B1B781A46264B53F8BB
S315004015902220264B1B7819460B46DB005B1A1B01A3
S315004015A01344BB6170220021B86900F06DFF3A8D8B
S315004015B0F8787B68302100F039FBF861FB691C4AFA
S315004015C0934225D1BB6940F207121A60BB690833C2
S315004015D07B617B69BA685A607B69FA689A607B6806
S315004015E01A687B691A600F4B1878104B1978114BA3
S315004015F0BA6901929A6800920CCB00F05DF8F861E6
S31500401600FB690B4A934205D0786800F033FB02E051
S3150040161000BF00E000BFFB6918462037BD4680BDCD
S31500401620F1D4D633098B4020042640000D8040205B
S3150040163033AAA5550C26400080B584B000AF0346BA
S315004016400A46FB711346BB714FF0FF33FB60184BE4
S31500401650BB6002E0FB68013BFB60FB68002B08D0E7
S31500401660BA79FB7911461846FEF788FF0346002BE8
S31500401670F0D0FB68002B15D0BA79FB791146184695
S31500401680FEF7B8FFB86000BFFB790A4A52F823302C
S3150040169003F582731A68BB79012101FA03F31340FB
S315004016A0002BF1D1BB6818461037BD4680BD00BF40
S315004016B0F1D4D6330080402082B080B584B000AFEC
S315004016C007F1180C8CE80C000346FB710B46BB7106
S315004016D03B7E002B57D1FB79484A52F82320BB79F1
S315004016E022FA03F303F00103002B13D1FB79444A9A
S315004016F052F82330BA799200134403F500731A4620
S315004017007B6A1360BA79FB7911461846FFF794FF56
S31500401710F8606AE000F053FEFA79BB7939499200E5
S315004017200A44134401221A70FB79354A52F8233091
S31500401730BA799200134403F500731A467B6A136024
S3150040174000F036FE00BFFA79BB792E4992000A4472
S3150040175013441B78DBB2002BF5D100F030FEF9794B
S31500401760BB7929481A4652001A4493001A460B463A
S315004017705B000B441B011344034404331B68FB60AA
S3150040178000F016FE31E0F979BB791A4652001A4448
S3150040179093001A460B465B000B441B0113441A4A3E
S315004017A01344BB6000F00BFEBB6801221A70FA6955
S315004017B0BB685A603A6ABB689A60FA79BB79114944
S315004017C092000A44134401221A70FB790C4A52F8DB
S315004017D02330BA799200134403F500731A467B6AA4
S315004017E013600A4BFB6000F0E3FDFB6818461037B8
S315004017F0BD46BDE8804002B0704700BFF884402037
S31500401800008040206C8B40200C8B402033AAA5558D
S3150040181080B485B000AF78603960504BFB600023E0
S31500401820FB728DE0FB7ADB007A6813441B78002B51
S315004018301ED1FB7ADB007A6813445B78002B17D104
S31500401840FB7ADB007A6813449B78002B10D1FB7A35
S31500401850DB007A681344DB78002B09D1FB7ADB0086
S315004018607A6813449B88002B02D13D4BFB606BE0AA
S31500401870FB7ADB007A681A44FB7A10783A684FF4B0
S31500401880837101FB03F31344023302461A70FB7A59
S31500401890DB007A681A44FB7A50783A684FF48371D1
S315004018A001FB03F31344033302461A70FB7ADB0051
S315004018B07A681A44FB7A90783A684FF4837101FB50
S315004018C003F31344043302461A70FB7ADB007A684A
S315004018D01A44FB7AD0783A684FF4837101FB03F3DC
S315004018E01344053302461A70FB7ADB007A681A44C1
S315004018F0FB7A90883A684FF4837101FB03F31344F3
S31500401900063302461A800023BB720EE0FA7ABB7A8F
S3150040191039684FF4837000FB02F20A4413440833DB
S3150040192001221A70BB7A0133BB72FB7ADB007A68FC
S315004019301344DB78BA7A9A42E8D3FB7A0133FB72D6
S31500401940FB7A1F2B7FF66EAF3B68FA7A1A70FB68FC
S3150040195018461437BD4680BC704700BFF1D4D63315
S3150040196033AAA55580B485B000AF0346FB710B463C
S31500401970BB7113467B710023FB737B79012B06D128
S31500401980FA79BB799A4202D10123FB730CE07B7949
S31500401990002B08D1FA79BB791343DBB2002B02D076
S315004019A00123FB7300E000BFFB7B18461437BD469E
S315004019B080BC704780B584B000AF786039600D4B0D
S315004019C0FB600D497868FFF723FFF860FB680B4A18
S315004019D0934208D10A493868FFF71AFFF860FB6856
S315004019E0064A934200E000BFFB6818461037BD46E2
S315004019F080BD00BFF1D4D633B6AF402033AAA5553B
S31500401A0078D0402090B589B000AF044608461146CC
S31500401A101A462346FB710346BB710B467B71134640
S31500401A203B717E4BFB610223FB76FB7E42F2C20298
S31500401A3002FB03F37A4A13447B61BB6B002B02D152
S31500401A40784BFB61E5E0FB79012B09D10123FB765D
S31500401A50FB7E42F2C20202FB03F3714A13447B61EE
S31500401A600023FB7463E0FB7C7A694FF4837101FBCE
S31500401A7003F3134403331B783A799A4254D1FB7CDF
S31500401A807A694FF4837101FB03F3134402331978E7
S31500401A907A79BB791846FFF765FF0346002B43D09A
S31500401AA0FB7C7A694FF4837101FB03F313440433DF
S31500401AB01B7897F830209A4236D1FB7C7A694FF4EE
S31500401AC0837101FB03F3134406331B88BA8E9A4293
S31500401AD02AD1FB7C4FF4837202FB03F37A691344E9
S31500401AE00233BB600023BB7419E0BB7CBA68134465
S31500401AF09B79012B10D14C4BFB61BB7CBA681344DC
S31500401B0000229A71FB7E1A04FB7C1B021A43BB7CA3
S31500401B101A43BB6B1A607CE0BB7C0133BB74BB6869
S31500401B20DB78BA7C9A42E0D3FB7C0133FB747B6959
S31500401B301B78FA7C9A4296D30023FB7463E0FB7CC5
S31500401B407A694FF4837101FB03F3134403331B7823
S31500401B503A799A4254D1FB7C7A694FF4837101FBFE
S31500401B6003F31344023319787A79BB791846FFF7A1
S31500401B70F9FE0346002B43D0FB7C7A694FF4837110
S31500401B8001FB03F3134404331B7897F830209A4241
S31500401B9036D1FB7C7A694FF4837101FB03F313441E
S31500401BA006331B88BA8E9A422AD8FB7C4FF483723E
S31500401BB002FB03F37A6913440233FB600023BB74D0
S31500401BC019E0BB7CFA6813449B79012B10D1164B64
S31500401BD0FB61BB7CFA68134400229A71FB7E1A04AF
S31500401BE0FB7C1B021A43BB7C1A43BB6B1A6010E09A
S31500401BF0BB7C0133BB74FB68DB78BA7C9A42E0D38A
S31500401C00FB7C0133FB747B691B78FA7C9A4296D342
S31500401C1000BFFB6918462437BD4690BDF1D4D63384
S31500401C20F48E40206AA2A55533AAA55580B588B042
S31500401C3004AF3B600346FB710B46BB711346BB804A
S31500401C400023FB73FB79012B01D10123FB73FA7B44
S31500401C50F8793B680293BB880193BB79009313469E
S31500401C6000220121FFF7CEFE034618461037BD4637
S31500401C7080BD000080B487B000AF78601E4B7B61AA
S31500401C807B681B681B0CFB747B681B681B0ABB7458
S31500401C907B681B687B740023FB607B681B68B3F121
S31500401CA0FF3F02D1154B7B611FE0FA7CB97C7B7C00
S31500401CB04FF4837000FB01F142F2C20000FB02F2D6
S31500401CC00A4413440E4A13440833FB60FB681B78EE
S31500401CD0002B09D1FB6801221A707B684FF0FF3256
S31500401CE01A60064B7B6100E000BF7B6918461C37D3
S31500401CF0BD4680BC704700BFF1D4D63333AAA55544
S31500401D00F48E402080B500AF02E0084B00221A70E6
S31500401D100020FEF753FC034603F480739BB2002B6E
S31500401D20F3D0024B01221A7000BF80BD3AF1402029
S31500401D3080B588B002AF786039601E4B7B61002366
S31500401D403B610020FEF7BEFB0346FB73FB7BFF2B8C
S31500401D5002D1194B7B6127E07B68102B02D9164BC9
S31500401D607B6121E0154B1968FA7B1346DB009B1A11
S31500401D701B010B443B6170220021386900F084FB53
S31500401D803B690F4A1A603B697A689A603B693A68D0
S31500401D90DA600C4BF97B3A6901929A6800920CCB57
S31500401DA00020FFF789FC78617B6918461837BD46E5
S31500401DB080BD00BF64A1A55599A3A5550426400042
S31500401DC00004A5000C26400080B588B002AF7860BC
S31500401DD00B46FB70254B7B6100233B610020FEF7E1
S31500401DE071FB0346FB73FB7BFF2B02D1204B7B61D0
S31500401DF036E07B68102B02D91D4B7B6130E0FB78C7
S31500401E001F2B08D9FB78402B05D8FB7803F0070336
S31500401E10DBB2002B02D0164B7B6121E0154B1968D3
S31500401E20FA7B1346DB009B1A1B010B443B61702275
S31500401E300021386900F028FB3B6952221A603B6951
S31500401E407A689A603B69FA781A730B4BF97B3A6960
S31500401E5001929A6800920CCB0020FFF72DFC786126
S31500401E607B6918461837BD4680BD00BF64A1A5559D
S31500401E7099A3A555042640000C264000F0B5ADF5C3
S31500401E800F7D08AFFFF73EFFBD49BE48FEF7A0FDF8
S31500401E90C7F81402D7F81432BB4A934200D0FEE783
S31500401EA0B749B848FFF786FDC7F81402D7F8143289
S31500401EB0B54A934200D0FEE7B44BC7F81032B44B54
S31500401EC0C7F8F831B34BC7F8F431B34BC7F80C3207
S31500401ED0B24B10220121D7F81002FEF75BFDC7F87E
S31500401EE01402D7F81432A84A934200D0FEE70120E4
S31500401EF0FEF70EFD03469BB200220292A84A0192CB
S31500401F000093012310228821A648FFF755F9C7F808
S31500401F101402D7F814329C4A934200D0FEE70120BF
S31500401F20FEF7F6FC03469BB207F5FC7200930023CE
S31500401F3096499C48FFF71EFBC7F81402D7F814329F
S31500401F40914A934200D0FEE700F03AF9C7F81402EE
S31500401F5007F5F27300221A605A609A60DA600F231E
S31500401F60A7F8E4314FF48073A7F8E631122387F8D7
S31500401F70F0318D4B5D68B7F8E6310733DB089EB22A
S31500401F8007F5FA7C6C4607F5F2730FCB84E80F0031
S31500401F900123624631462846FFF730F9C7F8140256
S31500401FA0D7F81432784A934200D0FEE7112387F8D7
S31500401FB0D831102387F8DC31D7F8F4010023019398
S31500401FC07A4B00937A4B7B4A1021FFF787FAC7F882
S31500401FD01402D7F8F40100230193744B0093744B19
S31500401FE0744A1021FFF7A0FAC7F814020023C7F875
S31500401FF0843107F5C47350220021184600F044FA94
S315004020000023C7F8303107F59A735022002118464D
S3150040201000F03AFA07F50673A3F5947300221A60A6
S3150040202004333C220021184600F02EFA1023C7F84C
S31500402030083207F50673A3F596734FF0FF321A6020
S315004020402823C7F804320D23C7F800320E23C7F8F9
S31500402050FC31D7F80432DBB21946D7F80002FFF755
S31500402060B3FEC7F81402D7F81432474A934200D059
S31500402070FEE74FF40001D7F80002FFF759FEC7F814
S315004020801402D7F81432404A934200D0FEE7D7F8FC
S31500402090F4010023059307F1EC030493434B0393A8
S315004020A080230293434B0193802300930023D7F868
S315004020B000220121FEF77CFBC7F8140207F50673E0
S315004020C0A3F5C07300221A6004335022002118463B
S315004020D000F0DAF907F50673A3F5EA7300221A60F1
S315004020E0043350220021184600F0CEF907F5067356
S315004020F0A3F5057300221A6004333C2200211846DA
S3150040210000F0C2F90023069307F1980305933B1D9F
S315004021100493D7F808320393274B02932523019360
S31500402120002300930023254A10211B48FEF7EEFAB0
S31500402130C7F81402D7F81432134A934200D0FEE788
S315004021400023069307F1440305933B1D0493D7F8F8
S315004021500832039307F19803029354230193002313
S3150040216000930023154A10210B48FEF7F8FAC7F8EA
S315004021701402D7F81432044A934200D0FEE7FEE731
S3150040218084274000DC26400033AAA55500060200FD
S315004021900009020002020100000202003CF1402058
S315004021A01826400000070200788040207CF140203D
S315004021B09C804020DC274000582640008026400076
S315004021C080B582B000AF164B5B685B68197B144BD9
S315004021D05B685B685A88134B0020FFF727FD124B5C
S315004021E01B89DB009AB2114B30210020FFF71EFD00
S315004021F00B4B5B680B4A12681A600A4B1B680A4A0B
S3150040220013600A4B1B68084A53600749044800F0AC
S315004022100FF8786000BF7B6818460837BD4680BD1A
S3150040222040804020A080402078804020A4804020EC
S3150040223080B584B000AF786039607B6800229A61CF
S315004022407B6800229A607868FEF732FDF860FB688A
S31500402250084A934207D13868FFF73EF8F860FB68B2
S31500402260044A934200E000BFFB6818461037BD465B
S3150040227080BD00BF33AAA555374B1B6803F0010349
S31500402280002B10D0354BDD08354C05E02EA3D3E9A5
S315004022900023C4E9002308342B465D1E002BF5D1EC
S315004022A02D4B01221A602F4E1AE04FF000044FF0DA
S315004022B000050EE032682346DB0002EB030C24A344
S315004022C0D3E90023CCE90023601C45F10001044614
S315004022D00D46D6E90223944275EB0303EAD3103642
S315004022E0214B9E42E1D300BF204B1C4684F3088815
S315004022F000BF00F049F81E4C0EE0002508E02268B9
S31500402300AB001A446168AB000B4412681A60013591
S31500402310A3689D42F3D30C34164B9C42EDD3164C26
S315004023200BE0002505E02268AB00134400221A604A
S31500402330013563689D42F6D30834104B9C42F0D376
S31500402340FEF786F8AFF30080EDFEFECAEFBEADDEC7
S31500402350FECAEDFEEFBEADDE00C0284000800000A4
S315004023600000402010294000702940000000452010
S31500402370702940007C2940007C2940007C2940008F
S3150040238080B400AFFEE7000080B400AF044B054ABE
S315004023909A60054B054A1A6000BFBD4680BC70472F
S315004023A000ED00E000004000A880402040787D011C
S315004023B080B400AF62B600BFBD4680BC704780B4F3
S315004023C000AF72B600BFBD4680BC704780B400AF58
S315004023D0FEE780B400AFFEE780B400AFFEE780B40E
S315004023E000AFFEE780B400AFFEE780B400AFFEE783
S315004023F080B400AFFEE780B400AFFEE780B400AF24
S31500402400FEE7000008B50021044600F04FF8044BF3
S315004024101868C36B03B19847204600F0E5F800BF43
S315004024200029400070B50D4D0D4C641BA4100026CC
S31500402430A64209D10B4D0C4C00F0D8F8641BA410F1
S315004024400026A64205D170BD55F8043B9847013693
S31500402450EEE755F8043B98470136F2E7C88440203A
S31500402460C8844020C8844020D08440200A449142F9
S3150040247000F1FF3300D1704710B511F8014B03F856
S31500402480014F9142F9D110BD02440346934200D117
S31500402490704703F8011BF9E7024B13B1024800F0FD
S315004024A06BB8704700000000512540002DE9F74FFA
S315004024B0264B1B68019307460E464FF0000A019BC8
S315004024C0D3F8485155B16C6804F1FF38013405EB37
S315004024D084044FF00109B8F1000F02DA03B0BDE8F9
S315004024E0F08F3EB1D4F80021B24203D008F1FF3854
S315004024F0043CF0E769682268013941450CBFC5F8DC
S315004025000480C4F800A0002AF0D0D5F88811D5F888
S3150040251004B009FA08FC1CEA010F09D19047696822
S31500402520019B5945D3F84821C9D19542DED0C6E72B
S31500402530D5F88C01D4F880101CEA000F02D1384639
S315004025409047ECE708469047E9E700BF002940007E
S3150040255038B5074D074C641BA4101CB9BDE838407C
S3150040256000F04AB8013C55F824309847F5E700BFDB
S31500402570D0844020D4844020002301461A46184681
S3150040258000F000B8F0B5174C2568D5F848411CB99D
S3150040259005F5A674C5F8484165681F2D1EDCB0B127
S315004025A004EB85070228C7F88820D4F888614FF0E5
S315004025B0010202FA05F246EA0206C4F88861C7F843
S315004025C0083102BFD4F88C311343C4F88C316B1CEC
S315004025D00235636044F825100020F0BD4FF0FF300F
S315004025E0FBE700BF00294000FEE70000F8B500BF4A
S315004025F0F8BC08BC9E467047F8B500BFF8BC08BC9E
S315004026009E467047748B4020348D40200000000069
S315004026100000000000000000D6606271131E7E7E3E
S31500402620617A81AA11F09E7ED56311828823367A1B
S31500402630869B454040B3F905CF4897766131AA8BD2
S315004026407F80453A15BF90F7517878579D5A4F97F6
S315004026503AEA5BB11542E07F416E6F74686572205D
S315004026606578616D706C65206D6573736167652013
S31500402670666F722044656D6F2041707000000000E7
S31500402680FFBC516A8FBE6152AA428CDD800C062D7A
S315004026905AC373D42ED92427D8FF6CFFF7EAE13DFD
S315004026A066D3C7E536CC749859E2A49E3EEA2AD84A
S315004026B046C9FBB7DDD99A1E6A54A89A87DB98DBD0
S315004026C06B8229F577B552E09AEED5E6009300D2B3
S315004026D065D1F1B28B505DCCC162F4F80300110CA8
S315004026E0800000000301120480000000030112076D
S315004026F000010000030120020002000003018703DD
S315004027000902000003018801090200000301890152
S31500402710090200000301970200100000030198011E
S31500402720001000000301990100100000030212038B
S315004027308000000003021203000100000302200192
S315004027400004000003028701090200000302880119
S3150040275009020000030289010902000003029701F1
S3150040276000100000030298010010000003029901C6
S31500402770001000000102880109020000000000006C
S315004027800000000003001101800000000300120A4F
S31500402790800000000100120A00010000030020062C
S315004027A0000400000300980200080000030099019D
S315004027B000040000030087020902000003008805A8
S315004027C009020000030030027E02000003003001CF
S315004027D00008000000000000000000006BC1BEE2DF
S315004027E02E409F96E93D7E117393172AFFFFFFFF08
S315004027F0FFFFFFFF00000000000000000000000097
S315004028000000000000000000000000000000000082
S315004028100000000000000000000000000000000072
S315004028200000000000000000000000000000000062
S315004028300000000000000000000000000000000052
S315004028400000000000000000000000000000000042
S315004028500000000000000000000000000000000032
S315004028600000000000000000000000000000000022
S315004028700000000000000000000000000000000012
S315004028800000000000000000000000000000000002
S3150040289000000000000000000000000000000000F2
S315004028A000000000000000000000000000000000E2
S315004028B000000000000000000000000000000000D2
S315004028C000000000000000000000000000000000C2
S315004028D000000000000000000000000000000000B2
S315004028E000000000000000000000000000000000A2
S315004028F00000000000000000000000000000000092
S30D00402900B080402000000000F9
S30D0040290840DBFF7F01000000E7
S3150040291000804020000000009B00000000000000F6
S31500402920D884402000000000D50D000000000000C3
S3150040293080F340200000000000020000000000007C
S3150040294000F04420000000000002000000000000EB
S315004029500000000000000000002000000000000011
S3150040296000000020000000000040000000000000C1
S3110040297080294000008040203601000015
S3150040298000C0384000C04E40010101010101000075
S3150040299020080001000000000000000012000000B6
S315004029A0FFFFFFFF108040200000000000000000F5
S315004029B00000000000000000CC264000100000008F
S315004029C000000000208040200000000000000000C1
S315004029D000000000000000000000000000000000B1
S315004029E000000000000000000000000000000000A1
S315004029F00000000000000000FFFFFFFFFFFFFFFF99
S31500402A00400003003C00000090264000010000000A
S31500402A100000000000000000000000001000000060
S31500402A20FFFFFFFFFFFFFFFF40787D010000000032
S31500402A30000000009C8340200084402064844020A5
S31500402A400000000000000000000000000000000040
S31500402A500000000000000000000000000000000030
S31500402A600000000000000000000000000000000020
S31500402A700000000000000000000000000000000010
S31500402A800000000000000000000000000000000000
S31500402A9000000000000000000000000000000000F0
S31500402AA000000000000000000000000000000000E0
S31500402AB000000000000000000000000000000000D0
S31500402AC000000000000000000000000000000000C0
S31500402AD000000000000000000100000000000000AF
S31500402AE00E33CDAB34126DE6ECDE05000B00000074
S31500402AF00000000000000000000000000000000090
S31500402B00000000000000000000000000000000007F
S31500402B10000000000000000000000000000000006F
S31500402B20000000000000000000000000000000005F
S31500402E4000000000000000009924400029044000D2
S30D00402E500104400000000000EF
S31510000000A55AA55A0100000000000000000040009B
S3151000001000000000000000000000000000000000CA
S31510000020F0274000EC274000000000000000000010
S3151000003000000000000000000000000000000000AA
S31510000040000000000000000000000000000000009A
S31510000050000000000000000000000000000000008A
S31510000060000000000000000000000000000000007A
S31510000070000000000000000000000000000000006A
S31510000080000000000000000000000000000000005A
S31510000090000000000000000000000000000000004A
S315100000A0000000000000000000000000000000003A
S315100000B0000000000000000000000000000000002A
S315100000C0000000000000000000000000000000001A
S315100000D0000000000000000000000000000000000A
S315100000E000000000000000000000000000000000FA
S315100000F000000000000000000000000000000000EA
S705004022791F
